{
  "_format": "hh-sol-artifact-1",
  "contractName": "Mint",
  "sourceName": "contracts/Mint.sol",
  "abi": [
    {
      "inputs": [
        {
          "internalType": "string",
          "name": "name",
          "type": "string"
        },
        {
          "internalType": "string",
          "name": "symbol",
          "type": "string"
        }
      ],
      "stateMutability": "nonpayable",
      "type": "constructor"
    },
    {
      "anonymous": false,
      "inputs": [
        {
          "indexed": true,
          "internalType": "address",
          "name": "owner",
          "type": "address"
        },
        {
          "indexed": true,
          "internalType": "address",
          "name": "approved",
          "type": "address"
        },
        {
          "indexed": true,
          "internalType": "uint256",
          "name": "tokenId",
          "type": "uint256"
        }
      ],
      "name": "Approval",
      "type": "event"
    },
    {
      "anonymous": false,
      "inputs": [
        {
          "indexed": true,
          "internalType": "address",
          "name": "owner",
          "type": "address"
        },
        {
          "indexed": true,
          "internalType": "address",
          "name": "operator",
          "type": "address"
        },
        {
          "indexed": false,
          "internalType": "bool",
          "name": "approved",
          "type": "bool"
        }
      ],
      "name": "ApprovalForAll",
      "type": "event"
    },
    {
      "anonymous": false,
      "inputs": [
        {
          "indexed": true,
          "internalType": "address",
          "name": "previousOwner",
          "type": "address"
        },
        {
          "indexed": true,
          "internalType": "address",
          "name": "newOwner",
          "type": "address"
        }
      ],
      "name": "OwnershipTransferred",
      "type": "event"
    },
    {
      "anonymous": false,
      "inputs": [
        {
          "indexed": true,
          "internalType": "address",
          "name": "from",
          "type": "address"
        },
        {
          "indexed": true,
          "internalType": "address",
          "name": "to",
          "type": "address"
        },
        {
          "indexed": true,
          "internalType": "uint256",
          "name": "tokenId",
          "type": "uint256"
        }
      ],
      "name": "Transfer",
      "type": "event"
    },
    {
      "inputs": [
        {
          "internalType": "address",
          "name": "to",
          "type": "address"
        },
        {
          "internalType": "uint256",
          "name": "tokenId",
          "type": "uint256"
        }
      ],
      "name": "approve",
      "outputs": [],
      "stateMutability": "nonpayable",
      "type": "function"
    },
    {
      "inputs": [
        {
          "internalType": "address",
          "name": "owner",
          "type": "address"
        }
      ],
      "name": "balanceOf",
      "outputs": [
        {
          "internalType": "uint256",
          "name": "",
          "type": "uint256"
        }
      ],
      "stateMutability": "view",
      "type": "function"
    },
    {
      "inputs": [
        {
          "internalType": "address",
          "name": "",
          "type": "address"
        }
      ],
      "name": "balances",
      "outputs": [
        {
          "internalType": "uint256",
          "name": "",
          "type": "uint256"
        }
      ],
      "stateMutability": "view",
      "type": "function"
    },
    {
      "inputs": [
        {
          "internalType": "uint256",
          "name": "tokenId",
          "type": "uint256"
        }
      ],
      "name": "getApproved",
      "outputs": [
        {
          "internalType": "address",
          "name": "",
          "type": "address"
        }
      ],
      "stateMutability": "view",
      "type": "function"
    },
    {
      "inputs": [
        {
          "internalType": "address",
          "name": "owner",
          "type": "address"
        },
        {
          "internalType": "address",
          "name": "operator",
          "type": "address"
        }
      ],
      "name": "isApprovedForAll",
      "outputs": [
        {
          "internalType": "bool",
          "name": "",
          "type": "bool"
        }
      ],
      "stateMutability": "view",
      "type": "function"
    },
    {
      "inputs": [
        {
          "internalType": "uint256",
          "name": "numberOfMints",
          "type": "uint256"
        }
      ],
      "name": "ming",
      "outputs": [],
      "stateMutability": "payable",
      "type": "function"
    },
    {
      "inputs": [],
      "name": "name",
      "outputs": [
        {
          "internalType": "string",
          "name": "",
          "type": "string"
        }
      ],
      "stateMutability": "view",
      "type": "function"
    },
    {
      "inputs": [],
      "name": "owner",
      "outputs": [
        {
          "internalType": "address",
          "name": "",
          "type": "address"
        }
      ],
      "stateMutability": "view",
      "type": "function"
    },
    {
      "inputs": [
        {
          "internalType": "uint256",
          "name": "tokenId",
          "type": "uint256"
        }
      ],
      "name": "ownerOf",
      "outputs": [
        {
          "internalType": "address",
          "name": "",
          "type": "address"
        }
      ],
      "stateMutability": "view",
      "type": "function"
    },
    {
      "inputs": [],
      "name": "renounceOwnership",
      "outputs": [],
      "stateMutability": "nonpayable",
      "type": "function"
    },
    {
      "inputs": [
        {
          "internalType": "address",
          "name": "from",
          "type": "address"
        },
        {
          "internalType": "address",
          "name": "to",
          "type": "address"
        },
        {
          "internalType": "uint256",
          "name": "tokenId",
          "type": "uint256"
        }
      ],
      "name": "safeTransferFrom",
      "outputs": [],
      "stateMutability": "nonpayable",
      "type": "function"
    },
    {
      "inputs": [
        {
          "internalType": "address",
          "name": "from",
          "type": "address"
        },
        {
          "internalType": "address",
          "name": "to",
          "type": "address"
        },
        {
          "internalType": "uint256",
          "name": "tokenId",
          "type": "uint256"
        },
        {
          "internalType": "bytes",
          "name": "_data",
          "type": "bytes"
        }
      ],
      "name": "safeTransferFrom",
      "outputs": [],
      "stateMutability": "nonpayable",
      "type": "function"
    },
    {
      "inputs": [
        {
          "internalType": "address",
          "name": "operator",
          "type": "address"
        },
        {
          "internalType": "bool",
          "name": "approved",
          "type": "bool"
        }
      ],
      "name": "setApprovalForAll",
      "outputs": [],
      "stateMutability": "nonpayable",
      "type": "function"
    },
    {
      "inputs": [
        {
          "internalType": "bytes4",
          "name": "interfaceId",
          "type": "bytes4"
        }
      ],
      "name": "supportsInterface",
      "outputs": [
        {
          "internalType": "bool",
          "name": "",
          "type": "bool"
        }
      ],
      "stateMutability": "view",
      "type": "function"
    },
    {
      "inputs": [],
      "name": "symbol",
      "outputs": [
        {
          "internalType": "string",
          "name": "",
          "type": "string"
        }
      ],
      "stateMutability": "view",
      "type": "function"
    },
    {
      "inputs": [
        {
          "internalType": "uint256",
          "name": "index",
          "type": "uint256"
        }
      ],
      "name": "tokenByIndex",
      "outputs": [
        {
          "internalType": "uint256",
          "name": "",
          "type": "uint256"
        }
      ],
      "stateMutability": "view",
      "type": "function"
    },
    {
      "inputs": [
        {
          "internalType": "address",
          "name": "owner",
          "type": "address"
        },
        {
          "internalType": "uint256",
          "name": "index",
          "type": "uint256"
        }
      ],
      "name": "tokenOfOwnerByIndex",
      "outputs": [
        {
          "internalType": "uint256",
          "name": "",
          "type": "uint256"
        }
      ],
      "stateMutability": "view",
      "type": "function"
    },
    {
      "inputs": [
        {
          "internalType": "uint256",
          "name": "tokenId",
          "type": "uint256"
        }
      ],
      "name": "tokenURI",
      "outputs": [
        {
          "internalType": "string",
          "name": "",
          "type": "string"
        }
      ],
      "stateMutability": "view",
      "type": "function"
    },
    {
      "inputs": [],
      "name": "totalSupply",
      "outputs": [
        {
          "internalType": "uint256",
          "name": "",
          "type": "uint256"
        }
      ],
      "stateMutability": "view",
      "type": "function"
    },
    {
      "inputs": [
        {
          "internalType": "address",
          "name": "from",
          "type": "address"
        },
        {
          "internalType": "address",
          "name": "to",
          "type": "address"
        },
        {
          "internalType": "uint256",
          "name": "tokenId",
          "type": "uint256"
        }
      ],
      "name": "transferFrom",
      "outputs": [],
      "stateMutability": "nonpayable",
      "type": "function"
    },
    {
      "inputs": [
        {
          "internalType": "address",
          "name": "newOwner",
          "type": "address"
        }
      ],
      "name": "transferOwnership",
      "outputs": [],
      "stateMutability": "nonpayable",
      "type": "function"
    }
  ],
  "bytecode": "0x60806040523480156200001157600080fd5b506040516200396a3803806200396a833981810160405281019062000037919062000285565b818181600090805190602001906200005192919062000163565b5080600190805190602001906200006a92919062000163565b5050506200008d620000816200009560201b60201c565b6200009d60201b60201c565b505062000468565b600033905090565b6000600a60009054906101000a900473ffffffffffffffffffffffffffffffffffffffff16905081600a60006101000a81548173ffffffffffffffffffffffffffffffffffffffff021916908373ffffffffffffffffffffffffffffffffffffffff1602179055508173ffffffffffffffffffffffffffffffffffffffff168173ffffffffffffffffffffffffffffffffffffffff167f8be0079c531659141344cd1fd0a4f28419497f9722a3daafe3b4186f6b6457e060405160405180910390a35050565b82805462000171906200038d565b90600052602060002090601f016020900481019282620001955760008555620001e1565b82601f10620001b057805160ff1916838001178555620001e1565b82800160010185558215620001e1579182015b82811115620001e0578251825591602001919060010190620001c3565b5b509050620001f09190620001f4565b5090565b5b808211156200020f576000816000905550600101620001f5565b5090565b60006200022a620002248462000321565b620002f8565b9050828152602081018484840111156200024357600080fd5b6200025084828562000357565b509392505050565b600082601f8301126200026a57600080fd5b81516200027c84826020860162000213565b91505092915050565b600080604083850312156200029957600080fd5b600083015167ffffffffffffffff811115620002b457600080fd5b620002c28582860162000258565b925050602083015167ffffffffffffffff811115620002e057600080fd5b620002ee8582860162000258565b9150509250929050565b60006200030462000317565b9050620003128282620003c3565b919050565b6000604051905090565b600067ffffffffffffffff8211156200033f576200033e62000428565b5b6200034a8262000457565b9050602081019050919050565b60005b83811015620003775780820151818401526020810190506200035a565b8381111562000387576000848401525b50505050565b60006002820490506001821680620003a657607f821691505b60208210811415620003bd57620003bc620003f9565b5b50919050565b620003ce8262000457565b810181811067ffffffffffffffff82111715620003f057620003ef62000428565b5b80604052505050565b7f4e487b7100000000000000000000000000000000000000000000000000000000600052602260045260246000fd5b7f4e487b7100000000000000000000000000000000000000000000000000000000600052604160045260246000fd5b6000601f19601f8301169050919050565b6134f280620004786000396000f3fe60806040526004361061012a5760003560e01c80636352211e116100ab578063a22cb4651161006f578063a22cb46514610418578063b88d4fde14610441578063c5f47aa21461046a578063c87b56dd14610486578063e985e9c5146104c3578063f2fde38b146105005761012a565b80636352211e1461033157806370a082311461036e578063715018a6146103ab5780638da5cb5b146103c257806395d89b41146103ed5761012a565b806323b872dd116100f257806323b872dd1461022857806327e235e3146102515780632f745c591461028e57806342842e0e146102cb5780634f6ccce7146102f45761012a565b806301ffc9a71461012f57806306fdde031461016c578063081812fc14610197578063095ea7b3146101d457806318160ddd146101fd575b600080fd5b34801561013b57600080fd5b50610156600480360381019061015191906124d2565b610529565b604051610163919061291e565b60405180910390f35b34801561017857600080fd5b506101816105a3565b60405161018e9190612939565b60405180910390f35b3480156101a357600080fd5b506101be60048036038101906101b99190612524565b610635565b6040516101cb91906128b7565b60405180910390f35b3480156101e057600080fd5b506101fb60048036038101906101f69190612496565b6106ba565b005b34801561020957600080fd5b506102126107d2565b60405161021f9190612b9b565b60405180910390f35b34801561023457600080fd5b5061024f600480360381019061024a9190612390565b6107df565b005b34801561025d57600080fd5b506102786004803603810190610273919061232b565b61083f565b6040516102859190612b9b565b60405180910390f35b34801561029a57600080fd5b506102b560048036038101906102b09190612496565b610857565b6040516102c29190612b9b565b60405180910390f35b3480156102d757600080fd5b506102f260048036038101906102ed9190612390565b6108fc565b005b34801561030057600080fd5b5061031b60048036038101906103169190612524565b61091c565b6040516103289190612b9b565b60405180910390f35b34801561033d57600080fd5b5061035860048036038101906103539190612524565b6109b3565b60405161036591906128b7565b60405180910390f35b34801561037a57600080fd5b506103956004803603810190610390919061232b565b610a65565b6040516103a29190612b9b565b60405180910390f35b3480156103b757600080fd5b506103c0610b1d565b005b3480156103ce57600080fd5b506103d7610ba5565b6040516103e491906128b7565b60405180910390f35b3480156103f957600080fd5b50610402610bcf565b60405161040f9190612939565b60405180910390f35b34801561042457600080fd5b5061043f600480360381019061043a919061245a565b610c61565b005b34801561044d57600080fd5b50610468600480360381019061046391906123df565b610c77565b005b610484600480360381019061047f9190612524565b610cd9565b005b34801561049257600080fd5b506104ad60048036038101906104a89190612524565b610d73565b6040516104ba9190612939565b60405180910390f35b3480156104cf57600080fd5b506104ea60048036038101906104e59190612354565b610e1a565b6040516104f7919061291e565b60405180910390f35b34801561050c57600080fd5b506105276004803603810190610522919061232b565b610eae565b005b60007f780e9d63000000000000000000000000000000000000000000000000000000007bffffffffffffffffffffffffffffffffffffffffffffffffffffffff1916827bffffffffffffffffffffffffffffffffffffffffffffffffffffffff1916148061059c575061059b82610fa6565b5b9050919050565b6060600080546105b290612dc0565b80601f01602080910402602001604051908101604052809291908181526020018280546105de90612dc0565b801561062b5780601f106106005761010080835404028352916020019161062b565b820191906000526020600020905b81548152906001019060200180831161060e57829003601f168201915b5050505050905090565b600061064082611088565b61067f576040517f08c379a000000000000000000000000000000000000000000000000000000000815260040161067690612adb565b60405180910390fd5b6004600083815260200190815260200160002060009054906101000a900473ffffffffffffffffffffffffffffffffffffffff169050919050565b60006106c5826109b3565b90508073ffffffffffffffffffffffffffffffffffffffff168373ffffffffffffffffffffffffffffffffffffffff161415610736576040517f08c379a000000000000000000000000000000000000000000000000000000000815260040161072d90612b3b565b60405180910390fd5b8073ffffffffffffffffffffffffffffffffffffffff166107556110f4565b73ffffffffffffffffffffffffffffffffffffffff16148061078457506107838161077e6110f4565b610e1a565b5b6107c3576040517f08c379a00000000000000000000000000000000000000000000000000000000081526004016107ba90612a5b565b60405180910390fd5b6107cd83836110fc565b505050565b6000600880549050905090565b6107f06107ea6110f4565b826111b5565b61082f576040517f08c379a000000000000000000000000000000000000000000000000000000000815260040161082690612b5b565b60405180910390fd5b61083a838383611293565b505050565b600b6020528060005260406000206000915090505481565b600061086283610a65565b82106108a3576040517f08c379a000000000000000000000000000000000000000000000000000000000815260040161089a9061295b565b60405180910390fd5b600660008473ffffffffffffffffffffffffffffffffffffffff1673ffffffffffffffffffffffffffffffffffffffff168152602001908152602001600020600083815260200190815260200160002054905092915050565b61091783838360405180602001604052806000815250610c77565b505050565b60006109266107d2565b8210610967576040517f08c379a000000000000000000000000000000000000000000000000000000000815260040161095e90612b7b565b60405180910390fd5b600882815481106109a1577f4e487b7100000000000000000000000000000000000000000000000000000000600052603260045260246000fd5b90600052602060002001549050919050565b6000806002600084815260200190815260200160002060009054906101000a900473ffffffffffffffffffffffffffffffffffffffff169050600073ffffffffffffffffffffffffffffffffffffffff168173ffffffffffffffffffffffffffffffffffffffff161415610a5c576040517f08c379a0000000000000000000000000000000000000000000000000000000008152600401610a5390612a9b565b60405180910390fd5b80915050919050565b60008073ffffffffffffffffffffffffffffffffffffffff168273ffffffffffffffffffffffffffffffffffffffff161415610ad6576040517f08c379a0000000000000000000000000000000000000000000000000000000008152600401610acd90612a7b565b60405180910390fd5b600360008373ffffffffffffffffffffffffffffffffffffffff1673ffffffffffffffffffffffffffffffffffffffff168152602001908152602001600020549050919050565b610b256110f4565b73ffffffffffffffffffffffffffffffffffffffff16610b43610ba5565b73ffffffffffffffffffffffffffffffffffffffff1614610b99576040517f08c379a0000000000000000000000000000000000000000000000000000000008152600401610b9090612afb565b60405180910390fd5b610ba360006114fa565b565b6000600a60009054906101000a900473ffffffffffffffffffffffffffffffffffffffff16905090565b606060018054610bde90612dc0565b80601f0160208091040260200160405190810160405280929190818152602001828054610c0a90612dc0565b8015610c575780601f10610c2c57610100808354040283529160200191610c57565b820191906000526020600020905b815481529060010190602001808311610c3a57829003601f168201915b5050505050905090565b610c73610c6c6110f4565b83836115c0565b5050565b610c88610c826110f4565b836111b5565b610cc7576040517f08c379a0000000000000000000000000000000000000000000000000000000008152600401610cbe90612b5b565b60405180910390fd5b610cd38484848461172d565b50505050565b6000610ce36107d2565b905060005b82811015610d6e57610d0633600184610d019190612c4f565b611789565b600b60003373ffffffffffffffffffffffffffffffffffffffff1673ffffffffffffffffffffffffffffffffffffffff1681526020019081526020016000206000815480929190610d5690612e23565b91905055508080610d6690612e23565b915050610ce8565b505050565b6060610d7e82611088565b610dbd576040517f08c379a0000000000000000000000000000000000000000000000000000000008152600401610db490612b1b565b60405180910390fd5b6000610dc76117a7565b90506000815111610de75760405180602001604052806000815250610e12565b80610df1846117be565b604051602001610e02929190612893565b6040516020818303038152906040525b915050919050565b6000600560008473ffffffffffffffffffffffffffffffffffffffff1673ffffffffffffffffffffffffffffffffffffffff16815260200190815260200160002060008373ffffffffffffffffffffffffffffffffffffffff1673ffffffffffffffffffffffffffffffffffffffff16815260200190815260200160002060009054906101000a900460ff16905092915050565b610eb66110f4565b73ffffffffffffffffffffffffffffffffffffffff16610ed4610ba5565b73ffffffffffffffffffffffffffffffffffffffff1614610f2a576040517f08c379a0000000000000000000000000000000000000000000000000000000008152600401610f2190612afb565b60405180910390fd5b600073ffffffffffffffffffffffffffffffffffffffff168173ffffffffffffffffffffffffffffffffffffffff161415610f9a576040517f08c379a0000000000000000000000000000000000000000000000000000000008152600401610f919061299b565b60405180910390fd5b610fa3816114fa565b50565b60007f80ac58cd000000000000000000000000000000000000000000000000000000007bffffffffffffffffffffffffffffffffffffffffffffffffffffffff1916827bffffffffffffffffffffffffffffffffffffffffffffffffffffffff1916148061107157507f5b5e139f000000000000000000000000000000000000000000000000000000007bffffffffffffffffffffffffffffffffffffffffffffffffffffffff1916827bffffffffffffffffffffffffffffffffffffffffffffffffffffffff1916145b8061108157506110808261196b565b5b9050919050565b60008073ffffffffffffffffffffffffffffffffffffffff166002600084815260200190815260200160002060009054906101000a900473ffffffffffffffffffffffffffffffffffffffff1673ffffffffffffffffffffffffffffffffffffffff1614159050919050565b600033905090565b816004600083815260200190815260200160002060006101000a81548173ffffffffffffffffffffffffffffffffffffffff021916908373ffffffffffffffffffffffffffffffffffffffff160217905550808273ffffffffffffffffffffffffffffffffffffffff1661116f836109b3565b73ffffffffffffffffffffffffffffffffffffffff167f8c5be1e5ebec7d5bd14f71427d1e84f3dd0314c0f7b2291e5b200ac8c7c3b92560405160405180910390a45050565b60006111c082611088565b6111ff576040517f08c379a00000000000000000000000000000000000000000000000000000000081526004016111f690612a3b565b60405180910390fd5b600061120a836109b3565b90508073ffffffffffffffffffffffffffffffffffffffff168473ffffffffffffffffffffffffffffffffffffffff16148061127957508373ffffffffffffffffffffffffffffffffffffffff1661126184610635565b73ffffffffffffffffffffffffffffffffffffffff16145b8061128a57506112898185610e1a565b5b91505092915050565b8273ffffffffffffffffffffffffffffffffffffffff166112b3826109b3565b73ffffffffffffffffffffffffffffffffffffffff1614611309576040517f08c379a0000000000000000000000000000000000000000000000000000000008152600401611300906129bb565b60405180910390fd5b600073ffffffffffffffffffffffffffffffffffffffff168273ffffffffffffffffffffffffffffffffffffffff161415611379576040517f08c379a0000000000000000000000000000000000000000000000000000000008152600401611370906129fb565b60405180910390fd5b6113848383836119d5565b61138f6000826110fc565b6001600360008573ffffffffffffffffffffffffffffffffffffffff1673ffffffffffffffffffffffffffffffffffffffff16815260200190815260200160002060008282546113df9190612cd6565b925050819055506001600360008473ffffffffffffffffffffffffffffffffffffffff1673ffffffffffffffffffffffffffffffffffffffff16815260200190815260200160002060008282546114369190612c4f565b92505081905550816002600083815260200190815260200160002060006101000a81548173ffffffffffffffffffffffffffffffffffffffff021916908373ffffffffffffffffffffffffffffffffffffffff160217905550808273ffffffffffffffffffffffffffffffffffffffff168473ffffffffffffffffffffffffffffffffffffffff167fddf252ad1be2c89b69c2b068fc378daa952ba7f163c4a11628f55a4df523b3ef60405160405180910390a46114f5838383611ae9565b505050565b6000600a60009054906101000a900473ffffffffffffffffffffffffffffffffffffffff16905081600a60006101000a81548173ffffffffffffffffffffffffffffffffffffffff021916908373ffffffffffffffffffffffffffffffffffffffff1602179055508173ffffffffffffffffffffffffffffffffffffffff168173ffffffffffffffffffffffffffffffffffffffff167f8be0079c531659141344cd1fd0a4f28419497f9722a3daafe3b4186f6b6457e060405160405180910390a35050565b8173ffffffffffffffffffffffffffffffffffffffff168373ffffffffffffffffffffffffffffffffffffffff16141561162f576040517f08c379a000000000000000000000000000000000000000000000000000000000815260040161162690612a1b565b60405180910390fd5b80600560008573ffffffffffffffffffffffffffffffffffffffff1673ffffffffffffffffffffffffffffffffffffffff16815260200190815260200160002060008473ffffffffffffffffffffffffffffffffffffffff1673ffffffffffffffffffffffffffffffffffffffff16815260200190815260200160002060006101000a81548160ff0219169083151502179055508173ffffffffffffffffffffffffffffffffffffffff168373ffffffffffffffffffffffffffffffffffffffff167f17307eab39ab6107e8899845ad3d59bd9653f200f220920489ca2b5937696c3183604051611720919061291e565b60405180910390a3505050565b611738848484611293565b61174484848484611aee565b611783576040517f08c379a000000000000000000000000000000000000000000000000000000000815260040161177a9061297b565b60405180910390fd5b50505050565b6117a3828260405180602001604052806000815250611c85565b5050565b606060405180602001604052806000815250905090565b60606000821415611806576040518060400160405280600181526020017f30000000000000000000000000000000000000000000000000000000000000008152509050611966565b600082905060005b6000821461183857808061182190612e23565b915050600a826118319190612ca5565b915061180e565b60008167ffffffffffffffff81111561187a577f4e487b7100000000000000000000000000000000000000000000000000000000600052604160045260246000fd5b6040519080825280601f01601f1916602001820160405280156118ac5781602001600182028036833780820191505090505b5090505b6000851461195f576001826118c59190612cd6565b9150600a856118d49190612e6c565b60306118e09190612c4f565b60f81b81838151811061191c577f4e487b7100000000000000000000000000000000000000000000000000000000600052603260045260246000fd5b60200101907effffffffffffffffffffffffffffffffffffffffffffffffffffffffffffff1916908160001a905350600a856119589190612ca5565b94506118b0565b8093505050505b919050565b60007f01ffc9a7000000000000000000000000000000000000000000000000000000007bffffffffffffffffffffffffffffffffffffffffffffffffffffffff1916827bffffffffffffffffffffffffffffffffffffffffffffffffffffffff1916149050919050565b6119e0838383611ce0565b600073ffffffffffffffffffffffffffffffffffffffff168373ffffffffffffffffffffffffffffffffffffffff161415611a2357611a1e81611ce5565b611a62565b8173ffffffffffffffffffffffffffffffffffffffff168373ffffffffffffffffffffffffffffffffffffffff1614611a6157611a608382611d2e565b5b5b600073ffffffffffffffffffffffffffffffffffffffff168273ffffffffffffffffffffffffffffffffffffffff161415611aa557611aa081611e9b565b611ae4565b8273ffffffffffffffffffffffffffffffffffffffff168273ffffffffffffffffffffffffffffffffffffffff1614611ae357611ae28282611fde565b5b5b505050565b505050565b6000611b0f8473ffffffffffffffffffffffffffffffffffffffff1661205d565b15611c78578373ffffffffffffffffffffffffffffffffffffffff1663150b7a02611b386110f4565b8786866040518563ffffffff1660e01b8152600401611b5a94939291906128d2565b602060405180830381600087803b158015611b7457600080fd5b505af1925050508015611ba557506040513d601f19601f82011682018060405250810190611ba291906124fb565b60015b611c28573d8060008114611bd5576040519150601f19603f3d011682016040523d82523d6000602084013e611bda565b606091505b50600081511415611c20576040517f08c379a0000000000000000000000000000000000000000000000000000000008152600401611c179061297b565b60405180910390fd5b805181602001fd5b63150b7a0260e01b7bffffffffffffffffffffffffffffffffffffffffffffffffffffffff1916817bffffffffffffffffffffffffffffffffffffffffffffffffffffffff191614915050611c7d565b600190505b949350505050565b611c8f8383612080565b611c9c6000848484611aee565b611cdb576040517f08c379a0000000000000000000000000000000000000000000000000000000008152600401611cd29061297b565b60405180910390fd5b505050565b505050565b6008805490506009600083815260200190815260200160002081905550600881908060018154018082558091505060019003906000526020600020016000909190919091505550565b60006001611d3b84610a65565b611d459190612cd6565b9050600060076000848152602001908152602001600020549050818114611e2a576000600660008673ffffffffffffffffffffffffffffffffffffffff1673ffffffffffffffffffffffffffffffffffffffff168152602001908152602001600020600084815260200190815260200160002054905080600660008773ffffffffffffffffffffffffffffffffffffffff1673ffffffffffffffffffffffffffffffffffffffff168152602001908152602001600020600084815260200190815260200160002081905550816007600083815260200190815260200160002081905550505b6007600084815260200190815260200160002060009055600660008573ffffffffffffffffffffffffffffffffffffffff1673ffffffffffffffffffffffffffffffffffffffff16815260200190815260200160002060008381526020019081526020016000206000905550505050565b60006001600880549050611eaf9190612cd6565b9050600060096000848152602001908152602001600020549050600060088381548110611f05577f4e487b7100000000000000000000000000000000000000000000000000000000600052603260045260246000fd5b906000526020600020015490508060088381548110611f4d577f4e487b7100000000000000000000000000000000000000000000000000000000600052603260045260246000fd5b906000526020600020018190555081600960008381526020019081526020016000208190555060096000858152602001908152602001600020600090556008805480611fc2577f4e487b7100000000000000000000000000000000000000000000000000000000600052603160045260246000fd5b6001900381819060005260206000200160009055905550505050565b6000611fe983610a65565b905081600660008573ffffffffffffffffffffffffffffffffffffffff1673ffffffffffffffffffffffffffffffffffffffff168152602001908152602001600020600083815260200190815260200160002081905550806007600084815260200190815260200160002081905550505050565b6000808273ffffffffffffffffffffffffffffffffffffffff163b119050919050565b600073ffffffffffffffffffffffffffffffffffffffff168273ffffffffffffffffffffffffffffffffffffffff1614156120f0576040517f08c379a00000000000000000000000000000000000000000000000000000000081526004016120e790612abb565b60405180910390fd5b6120f981611088565b15612139576040517f08c379a0000000000000000000000000000000000000000000000000000000008152600401612130906129db565b60405180910390fd5b612145600083836119d5565b6001600360008473ffffffffffffffffffffffffffffffffffffffff1673ffffffffffffffffffffffffffffffffffffffff16815260200190815260200160002060008282546121959190612c4f565b92505081905550816002600083815260200190815260200160002060006101000a81548173ffffffffffffffffffffffffffffffffffffffff021916908373ffffffffffffffffffffffffffffffffffffffff160217905550808273ffffffffffffffffffffffffffffffffffffffff16600073ffffffffffffffffffffffffffffffffffffffff167fddf252ad1be2c89b69c2b068fc378daa952ba7f163c4a11628f55a4df523b3ef60405160405180910390a461225660008383611ae9565b5050565b600061226d61226884612bdb565b612bb6565b90508281526020810184848401111561228557600080fd5b612290848285612d7e565b509392505050565b6000813590506122a781613460565b92915050565b6000813590506122bc81613477565b92915050565b6000813590506122d18161348e565b92915050565b6000815190506122e68161348e565b92915050565b600082601f8301126122fd57600080fd5b813561230d84826020860161225a565b91505092915050565b600081359050612325816134a5565b92915050565b60006020828403121561233d57600080fd5b600061234b84828501612298565b91505092915050565b6000806040838503121561236757600080fd5b600061237585828601612298565b925050602061238685828601612298565b9150509250929050565b6000806000606084860312156123a557600080fd5b60006123b386828701612298565b93505060206123c486828701612298565b92505060406123d586828701612316565b9150509250925092565b600080600080608085870312156123f557600080fd5b600061240387828801612298565b945050602061241487828801612298565b935050604061242587828801612316565b925050606085013567ffffffffffffffff81111561244257600080fd5b61244e878288016122ec565b91505092959194509250565b6000806040838503121561246d57600080fd5b600061247b85828601612298565b925050602061248c858286016122ad565b9150509250929050565b600080604083850312156124a957600080fd5b60006124b785828601612298565b92505060206124c885828601612316565b9150509250929050565b6000602082840312156124e457600080fd5b60006124f2848285016122c2565b91505092915050565b60006020828403121561250d57600080fd5b600061251b848285016122d7565b91505092915050565b60006020828403121561253657600080fd5b600061254484828501612316565b91505092915050565b61255681612d0a565b82525050565b61256581612d1c565b82525050565b600061257682612c0c565b6125808185612c22565b9350612590818560208601612d8d565b61259981612f59565b840191505092915050565b60006125af82612c17565b6125b98185612c33565b93506125c9818560208601612d8d565b6125d281612f59565b840191505092915050565b60006125e882612c17565b6125f28185612c44565b9350612602818560208601612d8d565b80840191505092915050565b600061261b602b83612c33565b915061262682612f6a565b604082019050919050565b600061263e603283612c33565b915061264982612fb9565b604082019050919050565b6000612661602683612c33565b915061266c82613008565b604082019050919050565b6000612684602583612c33565b915061268f82613057565b604082019050919050565b60006126a7601c83612c33565b91506126b2826130a6565b602082019050919050565b60006126ca602483612c33565b91506126d5826130cf565b604082019050919050565b60006126ed601983612c33565b91506126f88261311e565b602082019050919050565b6000612710602c83612c33565b915061271b82613147565b604082019050919050565b6000612733603883612c33565b915061273e82613196565b604082019050919050565b6000612756602a83612c33565b9150612761826131e5565b604082019050919050565b6000612779602983612c33565b915061278482613234565b604082019050919050565b600061279c602083612c33565b91506127a782613283565b602082019050919050565b60006127bf602c83612c33565b91506127ca826132ac565b604082019050919050565b60006127e2602083612c33565b91506127ed826132fb565b602082019050919050565b6000612805602f83612c33565b915061281082613324565b604082019050919050565b6000612828602183612c33565b915061283382613373565b604082019050919050565b600061284b603183612c33565b9150612856826133c2565b604082019050919050565b600061286e602c83612c33565b915061287982613411565b604082019050919050565b61288d81612d74565b82525050565b600061289f82856125dd565b91506128ab82846125dd565b91508190509392505050565b60006020820190506128cc600083018461254d565b92915050565b60006080820190506128e7600083018761254d565b6128f4602083018661254d565b6129016040830185612884565b8181036060830152612913818461256b565b905095945050505050565b6000602082019050612933600083018461255c565b92915050565b6000602082019050818103600083015261295381846125a4565b905092915050565b600060208201905081810360008301526129748161260e565b9050919050565b6000602082019050818103600083015261299481612631565b9050919050565b600060208201905081810360008301526129b481612654565b9050919050565b600060208201905081810360008301526129d481612677565b9050919050565b600060208201905081810360008301526129f48161269a565b9050919050565b60006020820190508181036000830152612a14816126bd565b9050919050565b60006020820190508181036000830152612a34816126e0565b9050919050565b60006020820190508181036000830152612a5481612703565b9050919050565b60006020820190508181036000830152612a7481612726565b9050919050565b60006020820190508181036000830152612a9481612749565b9050919050565b60006020820190508181036000830152612ab48161276c565b9050919050565b60006020820190508181036000830152612ad48161278f565b9050919050565b60006020820190508181036000830152612af4816127b2565b9050919050565b60006020820190508181036000830152612b14816127d5565b9050919050565b60006020820190508181036000830152612b34816127f8565b9050919050565b60006020820190508181036000830152612b548161281b565b9050919050565b60006020820190508181036000830152612b748161283e565b9050919050565b60006020820190508181036000830152612b9481612861565b9050919050565b6000602082019050612bb06000830184612884565b92915050565b6000612bc0612bd1565b9050612bcc8282612df2565b919050565b6000604051905090565b600067ffffffffffffffff821115612bf657612bf5612f2a565b5b612bff82612f59565b9050602081019050919050565b600081519050919050565b600081519050919050565b600082825260208201905092915050565b600082825260208201905092915050565b600081905092915050565b6000612c5a82612d74565b9150612c6583612d74565b9250827fffffffffffffffffffffffffffffffffffffffffffffffffffffffffffffffff03821115612c9a57612c99612e9d565b5b828201905092915050565b6000612cb082612d74565b9150612cbb83612d74565b925082612ccb57612cca612ecc565b5b828204905092915050565b6000612ce182612d74565b9150612cec83612d74565b925082821015612cff57612cfe612e9d565b5b828203905092915050565b6000612d1582612d54565b9050919050565b60008115159050919050565b60007fffffffff0000000000000000000000000000000000000000000000000000000082169050919050565b600073ffffffffffffffffffffffffffffffffffffffff82169050919050565b6000819050919050565b82818337600083830152505050565b60005b83811015612dab578082015181840152602081019050612d90565b83811115612dba576000848401525b50505050565b60006002820490506001821680612dd857607f821691505b60208210811415612dec57612deb612efb565b5b50919050565b612dfb82612f59565b810181811067ffffffffffffffff82111715612e1a57612e19612f2a565b5b80604052505050565b6000612e2e82612d74565b91507fffffffffffffffffffffffffffffffffffffffffffffffffffffffffffffffff821415612e6157612e60612e9d565b5b600182019050919050565b6000612e7782612d74565b9150612e8283612d74565b925082612e9257612e91612ecc565b5b828206905092915050565b7f4e487b7100000000000000000000000000000000000000000000000000000000600052601160045260246000fd5b7f4e487b7100000000000000000000000000000000000000000000000000000000600052601260045260246000fd5b7f4e487b7100000000000000000000000000000000000000000000000000000000600052602260045260246000fd5b7f4e487b7100000000000000000000000000000000000000000000000000000000600052604160045260246000fd5b6000601f19601f8301169050919050565b7f455243373231456e756d657261626c653a206f776e657220696e646578206f7560008201527f74206f6620626f756e6473000000000000000000000000000000000000000000602082015250565b7f4552433732313a207472616e7366657220746f206e6f6e20455243373231526560008201527f63656976657220696d706c656d656e7465720000000000000000000000000000602082015250565b7f4f776e61626c653a206e6577206f776e657220697320746865207a65726f206160008201527f6464726573730000000000000000000000000000000000000000000000000000602082015250565b7f4552433732313a207472616e736665722066726f6d20696e636f72726563742060008201527f6f776e6572000000000000000000000000000000000000000000000000000000602082015250565b7f4552433732313a20746f6b656e20616c7265616479206d696e74656400000000600082015250565b7f4552433732313a207472616e7366657220746f20746865207a65726f2061646460008201527f7265737300000000000000000000000000000000000000000000000000000000602082015250565b7f4552433732313a20617070726f766520746f2063616c6c657200000000000000600082015250565b7f4552433732313a206f70657261746f7220717565727920666f72206e6f6e657860008201527f697374656e7420746f6b656e0000000000000000000000000000000000000000602082015250565b7f4552433732313a20617070726f76652063616c6c6572206973206e6f74206f7760008201527f6e6572206e6f7220617070726f76656420666f7220616c6c0000000000000000602082015250565b7f4552433732313a2062616c616e636520717565727920666f7220746865207a6560008201527f726f206164647265737300000000000000000000000000000000000000000000602082015250565b7f4552433732313a206f776e657220717565727920666f72206e6f6e657869737460008201527f656e7420746f6b656e0000000000000000000000000000000000000000000000602082015250565b7f4552433732313a206d696e7420746f20746865207a65726f2061646472657373600082015250565b7f4552433732313a20617070726f76656420717565727920666f72206e6f6e657860008201527f697374656e7420746f6b656e0000000000000000000000000000000000000000602082015250565b7f4f776e61626c653a2063616c6c6572206973206e6f7420746865206f776e6572600082015250565b7f4552433732314d657461646174613a2055524920717565727920666f72206e6f60008201527f6e6578697374656e7420746f6b656e0000000000000000000000000000000000602082015250565b7f4552433732313a20617070726f76616c20746f2063757272656e74206f776e6560008201527f7200000000000000000000000000000000000000000000000000000000000000602082015250565b7f4552433732313a207472616e736665722063616c6c6572206973206e6f74206f60008201527f776e6572206e6f7220617070726f766564000000000000000000000000000000602082015250565b7f455243373231456e756d657261626c653a20676c6f62616c20696e646578206f60008201527f7574206f6620626f756e64730000000000000000000000000000000000000000602082015250565b61346981612d0a565b811461347457600080fd5b50565b61348081612d1c565b811461348b57600080fd5b50565b61349781612d28565b81146134a257600080fd5b50565b6134ae81612d74565b81146134b957600080fd5b5056fea2646970667358221220b7a31d861ce2f794e345a158bbdadd827485a25581ab9ca7e2e25f591cecc24764736f6c63430008040033",
  "linkReferences": {},
  "deployedLinkReferences": {}
}